{
  "_format": "hh-sol-artifact-1",
  "contractName": "Assessment",
  "sourceName": "contracts/Assessment.sol",
  "abi": [
    {
      "inputs": [],
      "name": "getNumber",
      "outputs": [
        {
          "internalType": "uint256",
          "name": "",
          "type": "uint256"
        }
      ],
      "stateMutability": "view",
      "type": "function"
    },
    {
      "inputs": [],
      "name": "incrementNumber",
      "outputs": [],
      "stateMutability": "nonpayable",
      "type": "function"
    },
    {
      "inputs": [
        {
          "internalType": "uint256",
          "name": "_number",
          "type": "uint256"
        }
      ],
      "name": "setNumber",
      "outputs": [],
      "stateMutability": "nonpayable",
      "type": "function"
    },
    {
      "inputs": [],
      "name": "storedNumber",
      "outputs": [
        {
          "internalType": "uint256",
          "name": "",
          "type": "uint256"
        }
      ],
      "stateMutability": "view",
      "type": "function"
    }
  ],
  "bytecode": "0x608060405234801561001057600080fd5b50610224806100206000396000f3fe608060405234801561001057600080fd5b506004361061004c5760003560e01c806309ce9ccb14610051578063273ea3e31461006f5780633fb5c1cb14610079578063f2c9ecd814610095575b600080fd5b6100596100b3565b60405161006691906100fe565b60405180910390f35b6100776100b9565b005b610093600480360381019061008e919061014a565b6100d2565b005b61009d6100dc565b6040516100aa91906100fe565b60405180910390f35b60005481565b6000808154809291906100cb906101a6565b9190505550565b8060008190555050565b60008054905090565b6000819050919050565b6100f8816100e5565b82525050565b600060208201905061011360008301846100ef565b92915050565b600080fd5b610127816100e5565b811461013257600080fd5b50565b6000813590506101448161011e565b92915050565b6000602082840312156101605761015f610119565b5b600061016e84828501610135565b91505092915050565b7f4e487b7100000000000000000000000000000000000000000000000000000000600052601160045260246000fd5b60006101b1826100e5565b91507fffffffffffffffffffffffffffffffffffffffffffffffffffffffffffffffff82036101e3576101e2610177565b5b60018201905091905056fea264697066735822122018efcd444b6885db1752f2e01b76fa7a954f63ad07165965799df76794887c1964736f6c63430008110033",
  "linkReferences": {},
  "deployedLinkReferences": {}
}